:020000040800F2
:10000000FC4F002005040000F9020000F902000086
:10001000F9020000F9020000F9020000F9020000F4
:10002000F9020000F9020000F9020000F9020000E4
:10003000F9020000F9020000F9020000F9020000D4
:10004000F9020000F9020000F9020000F9020000C4
:10005000F9020000F9020000F9020000F9020000B4
:10006000F9020000F9020000F9020000F9020000A4
:10007000F9020000F9020000F9020000F902000094
:10008000F9020000F9020000F9020000F902000084
:10009000F9020000F9020000F9020000F902000074
:1000A000F9020000F9020000F9020000F902000064
:1000B000F9020000F9020000F9020000F902000054
:1000C000F9020000F9020000F9020000F902000044
:1000D000F9020000F9020000F9020000F902000034
:1000E000F9020000F9020000F9020000F902000024
:1000F000F9020000F9020000F9020000F902000014
:10010000F9020000F9020000F9020000F902000003
:10011000F9020000F9020000F9020000F9020000F3
:10012000F9020000F9020000F9020000F9020000E3
:10013000002149B201480160704700BF940121428B
:100140000D4B18680178C1F3401080F00100C2B275
:1001500018460168087862F34510087045F65307A1
:10016000C0F2140700BF00BF7F1EFDD100BF00BF5B
:1001700000BF00BF704700BF0000002081B00F48E3
:10018000006840F001010D4801600D490D48016013
:100190000A4801680C4801400848016007480168A6
:1001A0006FF48020014005480160064801686FF443
:1001B000FE0001400348016001B07047001002409A
:1001C0000000FFF804100240FFFFF6FE2E4B2F4AFE
:1001D0000121107861F38200107019686FF47000CB
:1001E00001EA00001860186840F48010186003F2FB
:1001F0000C01086840F02000086046F25317C0F276
:10020000510700BF00BF7F1EFDD100BF00BF00BF70
:1002100000BF03F20C0211686FF0200001EA000039
:10022000106046F25317C0F2510700BF00BF7F1E97
:10023000FDD100BF00BF00BF00BF0122144801680C
:10024000087862F34510087046F25317C0F2510760
:1002500000BF00BF7F1EFDD100BF00BF00BF00BFB9
:1002600000220B480168087862F34510087046F2D6
:100270005317C0F2510700BF00BF7F1EFDD100BF62
:1002800000BF00BF00BF70470008014018100240C7
:100290000000002081B01CF8019B0BF8019BBBEB18
:1002A0000A0FF8D101B0704781B04FF000094FF04C
:1002B000000CBDEB0A0F04DCBDEB0B0F01DBD446D9
:1002C000EA464BF8049BBBEB0A0FFAD1BCEB0A0FD2
:1002D00005DDE246D9F800B00BF1040BF1E701B0FF
:1002E0007047FFFF81B002490248016001B07047CA
:1002F000401F00000400002081B0FEE701B07047FD
:1003000082B0CDF800E0374A374B384C03F0F000AC
:10031000010937484018007804FA00F10C464BF602
:100320008030814206D93348006840F002013148EC
:10033000016011E045F6C050844206D92D4800689E
:1003400040F001012B48016006E02A4801686FF087
:100350000700014027480160FFF710FF26480360AF
:10036000264802EA00012648016002F0010040B17F
:1003700019462348006800F00200002800D1F8E781
:1003800000E0194602F4803048B11D48006800F4CE
:10039000003000B9F9E701920A46019902E00191A3
:1003A0001146019A01F0807070B11548006840F064
:1003B00080711348016011461148006800F0007018
:1003C00000B9F9E70A46FFE70B48006800F00C01A6
:1003D000900000F00C00814200D0F5E7DDF800E06D
:1003E00002B070478100000000000000401F0000C4
:1003F000240400000020024004100240FFFF0F0010
:1004000000100240FFF77CFF00F056F8FFF76AFF8C
:1004100000F012F8FFF7DAFEFFF78AFEFFF790FE12
:10042000FCE7FEE7000000000102030401020304F0
:10043000060708090C08014000B5DFF814B0DFF822
:1004400014A0DFF814C0FFF725FF00BD704700BF00
:10045000000000200400002034040000FFFFFFFF24
:10046000FFFFFFFFFFFFFFFFFFFFFFFFFFFFFFFF9C
:10047000FFFFFFFFFFFFFFFFFFFFFFFFFFFFFFFF8C
:10048000FFFFFFFFFFFFFFFFFFFFFFFFFFFFFFFF7C
:10049000FFFFFFFFFFFFFFFFFFFFFFFFFFFFFFFF6C
:1004A000FFFFFFFFFFFFFFFFFFFFFFFFFFFFFFFF5C
:1004B000FFFFFFFFFFFFFFFF00B5DFF810B0DFF821
:1004C00010A0FFF7F1FE00BD704700BF0000002044
:1004D00008000020FFFFFFFFFFFFFFFFFFFFFFFF00
:00000001FF
