:020000040800F2
:10000000FC4F0020FD040000C5030000C5030000F4
:10001000C5030000C5030000C5030000C5030000C0
:10002000C5030000C5030000C5030000C5030000B0
:10003000C5030000C5030000C5030000C5030000A0
:10004000C5030000C5030000C5030000C503000090
:10005000C5030000C5030000C5030000C503000080
:10006000C5030000C5030000C5030000C503000070
:10007000C5030000C5030000C5030000C503000060
:10008000C5030000C5030000C5030000C503000050
:10009000C5030000C5030000C5030000C503000040
:1000A000C5030000C5030000C5030000C503000030
:1000B000C5030000C5030000C5030000C503000020
:1000C000C5030000C5030000C5030000C503000010
:1000D000C5030000C5030000C5030000C503000000
:1000E000CD030000C5030000C5030000C5030000E8
:1000F000C5030000C5030000C5030000C5030000E0
:10010000C5030000C5030000C5030000C5030000CF
:10011000C5030000C5030000C5030000C5030000BF
:10012000C5030000C5030000C5030000C5030000AF
:1001300081B0042806D11949096841F48032174971
:100140000A6028E0052806D11449096841F4003204
:1001500012490A601FE0062806D11049096841F4D7
:1001600080220E490A6016E00F2806D10C49096862
:1001700041F002020A490A600DE010280BD3A0F2F8
:10018000100461098A0007498B1804F01F024FF020
:1001900001019140196001B0704700BF24ED00E0FB
:1001A00010E000E000E100E081B0EFF3108C604669
:1001B00062B601B07047FFFF10480078E0B1104A06
:1001C0001178104840180078010289B20E48016089
:1001D00010460078401CC0B21070102802D10021D7
:1001E000074801704BF2A907C0F2280700BF00BF03
:1001F0007F1EFDD100BF00BF704700BF010000207F
:1002000000000020180500000C0C014081B00F48D0
:10021000006840F001010D4801600D490D48016082
:100220000A4801680C480140084801600748016815
:100230006FF48020014005480160064801686FF4B2
:10024000FE0001400348016001B070470010024009
:100250000000FFF804100240FFFFF6FE81B01CF81A
:10026000019B0BF8019BBBEB0A0FF8D101B0704763
:1002700000210948017001780848401800780102FF
:1002800089B207480160002106480170012149B286
:1002900005480160704700BF0000002018050000FD
:1002A0000C0C0140010000209401214281B04FF06C
:1002B00000094FF0000CBDEB0A0F04DCBDEB0B0F87
:1002C00001DBD446EA464BF8049BBBEB0A0FFAD19C
:1002D000BCEB0A0F05DDE246D9F800B00BF1040BC8
:1002E000F1E701B07047FFFF81B0CDF800E02D4885
:1002F000006840F008012B4801602B4801682B483A
:100300000140294801602848006840F066312648CD
:1003100001602448006840F0100122480160244830
:1003200001686FF4700001402148016020480068B6
:1003300040F480011E4801601A48006840F0040142
:10034000184801601B4801686FF4700001401948AB
:1003500001601848006840F4C00116480160114867
:10036000006840F001010F480160134801686FF018
:10037000F0000140104801600F48006840F0200183
:100380000D480160012149B20C4801600C48016030
:1003900040F23800FFF7CCFEFFF706FFDDF800E083
:1003A00001B0704718100240040C0140F000000139
:1003B000041001400008014014000140B4812042B3
:1003C0003480204281B0FEE701B07047012149B27C
:1003D0000648016006490878C0430870054800686F
:1003E00080F00101C9B2034801607047B482204225
:1003F000010000209401214281B0024902480160BD
:1004000001B07047401F00000400002082B0CDF80A
:1004100000E0334A334B34494BF68030814206D9F1
:100420003248006840F002013048016011E045F6B2
:10043000C050814206D92D48006840F001012B4888
:10044000016006E0294801686FF007000140274875
:100450000160FFF7DBFE26480360264802EA000140
:100460002548016002F0010040B1194622480068A9
:1004700000F00200002800D1F8E700E0194602F47D
:10048000803048B11C48006800F4003000B9F9E73A
:1004900001920A46019902E001911146019A01F088
:1004A000807070B11448006840F08071124801609B
:1004B00011461148006800F0007000B9F9E70A46DB
:1004C000FFE70B48006800F00C01900000F00C0002
:1004D000814200D0F5E7DDF800E002B0704700BFD0
:1004E0008100000000000000401F000000200240CA
:1004F00004100240FFFF0F0000100240FFF786FFCC
:1005000000F012F8FFF778FFFFF7EEFEFFF7B0FEFE
:10051000FFF752FEFCE7FEE7C0F9A4B0999282F81B
:1005200080908886A7A1868E00B5DFF810B0DFF82E
:1005300010A0FFF7BBFE00BD704700BF0000002009
:1005400008000020FFFFFFFFFFFFFFFFFFFFFFFF8F
:00000001FF
