:020000040800F2
:10000000FC4F0020C9030000BD020000BD0200003B
:10001000BD020000BD020000BD020000BD020000E4
:10002000BD020000BD020000BD020000BD020000D4
:10003000BD020000BD020000BD020000BD020000C4
:10004000BD020000BD020000BD020000BD020000B4
:10005000BD020000BD020000BD020000BD020000A4
:10006000BD020000BD020000BD020000BD02000094
:10007000BD020000BD020000BD020000BD02000084
:10008000BD020000BD020000BD020000BD02000074
:10009000BD020000BD020000BD020000BD02000064
:1000A000BD020000BD020000BD020000BD02000054
:1000B000BD020000BD020000BD020000BD02000044
:1000C000BD020000BD020000BD020000BD02000034
:1000D000BD020000BD020000BD020000BD02000024
:1000E000BD020000BD020000BD020000BD02000014
:1000F000BD020000BD020000BD020000BD02000004
:10010000BD020000BD020000BD020000BD020000F3
:10011000BD020000BD020000BD020000BD020000E3
:10012000BD020000BD020000BD020000BD020000D3
:100130000A48006880B90A48006880F00101C9B225
:10014000074801604BF2A907C0F2280700BF00BFB3
:100150007F1EFDD100BF00BF704700BF34012242A7
:100160009401214281B01CF8019B0BF8019BBBEB71
:100170000A0FF8D101B0704781B00F48006840F015
:1001800001010D4801600D490D4801600A480168F0
:100190000C48014008480160074801686FF480205E
:1001A000014005480160064801686FF4FE00014007
:1001B0000348016001B07047001002400000FFF8E2
:1001C00004100240FFFFF6FE012149B20848016019
:1001D0004BF2A907C0F2280700BF00BF7F1EFDD168
:1001E00000BF00BF002149B201480160704700BF55
:1001F0009401214281B04FF000094FF0000CBDEB9B
:100200000A0F04DCBDEB0B0F01DBD446EA464BF8CA
:10021000049BBBEB0A0FFAD1BCEB0A0F05DDE246EB
:10022000D9F800B00BF1040BF1E701B07047FFFF04
:100230001A4801686FF01000014018480160174823
:10024000006840F0100115480160154801686FF41E
:1002500070000140124801601148006840F48001BC
:100260000F4801600D4801686FF0040001400B4821
:1002700001600A48006840F004010848016009482C
:1002800001686FF47000014006480160054800688D
:1002900040F4801103480160704700BF181002400D
:1002A000041001400008014081B002490248016089
:1002B00001B07047401F00000000002081B0FEE741
:1002C00001B0704782B0CDF800E0374A374B384C68
:1002D00003F0F000010937484018007804FA00F1F3
:1002E0000C464BF68030814206D93348006840F016
:1002F00002013148016011E045F6C050844206D940
:100300002D48006840F001012B48016006E02A48B2
:1003100001686FF00700014027480160FFF72CFFDC
:1003200026480360264802EA00012648016002F0E0
:10033000010040B119462348006800F0020000287F
:1003400000D1F8E700E0194602F4803048B11D48BA
:10035000006800F4003000B9F9E701920A460199FB
:1003600002E001911146019A01F0807070B11548C8
:10037000006840F080711348016011461148006820
:1003800000F0007000B9F9E70A46FFE70B48006883
:1003900000F00C01900000F00C00814200D0F5E765
:1003A000DDF800E002B070478100000000000000AE
:1003B000401F0000E403000000200240041002403F
:1003C000FFFF0F0000100240FFF77CFF00F012F863
:1003D000FFF76AFFFFF72CFFFFF7F6FEFFF7A8FE17
:1003E000FCE7FEE700000000010203040102030431
:1003F0000607080900B5DFF810B0DFF810A0FFF716
:10040000F9FE00BD704700BF00000020040000207E
:00000001FF
