:020000040800F2
:10000000FC4F0020ED010000D1010000D1010000F3
:10001000D1010000D1010000D1010000D101000098
:10002000D1010000D1010000D1010000D101000088
:10003000D1010000D1010000D1010000D101000078
:10004000D1010000D1010000D1010000D101000068
:10005000D1010000D1010000D1010000D101000058
:10006000D1010000D1010000D1010000D101000048
:10007000D1010000D1010000D1010000D101000038
:10008000D1010000D1010000D1010000D101000028
:10009000D1010000D1010000D1010000D101000018
:1000A000D1010000D1010000D1010000D101000008
:1000B000D1010000D1010000D1010000D1010000F8
:1000C000D1010000D1010000D1010000D1010000E8
:1000D000D1010000D1010000D1010000D1010000D8
:1000E000D1010000D1010000D1010000D1010000C8
:1000F000D1010000D1010000D1010000D1010000B8
:10010000D1010000D1010000D1010000D1010000A7
:10011000D1010000D1010000D1010000D101000097
:10012000D1010000D1010000D1010000D101000087
:1001300081B01CF8019B0BF8019BBBEB0A0FF8D1B7
:1001400001B0704781B00F48006840F001010D48D0
:1001500001600D490D4801600A4801680C480140E2
:1001600008480160074801686FF480200140054895
:100170000160064801686FF4FE0001400348016019
:1001800001B07047001002400000FFF80410024068
:10019000FFFFF6FE81B04FF000094FF0000CBDEB01
:1001A0000A0F04DCBDEB0B0F01DBD446EA464BF82B
:1001B000049BBBEB0A0FFAD1BCEB0A0F05DDE2464C
:1001C000D9F800B00BF1040BF1E701B07047FFFF65
:1001D00081B0FEE701B0704781B00249024801607A
:1001E00001B07047401F00000000002000F006F83A
:1001F00000F08EF8FFF7F0FFFEE7FFFF82B0CDF8CA
:1002000000E0374A374B384C03F0F000010937481B
:100210004018007804FA00F10C464BF68030814219
:1002200006D93348006840F002013148016011E00E
:1002300045F6C050844206D92D48006840F00101BF
:100240002B48016006E02A4801686FF00700014072
:1002500027480160FFF776FF26480360264802EA38
:1002600000012648016002F0010040B11946234810
:10027000006800F00200002800D1F8E700E019460D
:1002800002F4803048B11D48006800F4003000B925
:10029000F9E701920A46019902E001911146019A9B
:1002A00001F0807070B11548006840F0807113480B
:1002B000016011461148006800F0007000B9F9E7CC
:1002C0000A46FFE70B48006800F00C01900000F0C0
:1002D0000C00814200D0F5E7DDF800E002B0704785
:1002E0008100000000000000401F0000000300002B
:1002F0000020024004100240FFFF0F0000100240E7
:1003000000000000010203040102030406070809BB
:1003100000B5DFF810B0DFF810A0FFF73BFF00BD1D
:10032000704700BF0000002004000020FFFFFFFF17
:00000001FF
