:020000040800F2
:10000000FC4F0020FD030000050300000503000075
:1000100005030000050300000503000005030000C0
:1000200005030000050300000503000005030000B0
:1000300005030000050300000503000005030000A0
:100040000503000005030000050300000503000090
:100050000503000005030000050300000503000080
:100060000503000005030000050300000503000070
:100070000503000005030000050300000503000060
:100080000503000005030000050300000503000050
:100090000503000005030000050300000503000040
:1000A0000503000005030000050300000503000030
:1000B0000503000005030000050300000503000020
:1000C0000503000005030000050300000503000010
:1000D0000503000005030000050300000503000000
:1000E00005030000050300000503000005030000F0
:1000F00005030000050300000503000005030000E0
:1001000005030000050300000503000005030000CF
:1001100005030000050300000503000005030000BF
:1001200005030000050300000503000005030000AF
:100130000B48006800F007020A480270D1B20A4872
:1001400040180078010289B208480160D1B208481D
:1001500040180078010289B206480160704700BF6C
:100160000810014000000020200400000C0C014099
:10017000180400000C08014081B01CF8019B0BF82A
:10018000019BBBEB0A0FF8D101B0704781B00F485B
:10019000006840F001010D4801600D490D48016003
:1001A0000A4801680C480140084801600748016896
:1001B0006FF48020014005480160064801686FF433
:1001C000FE0001400348016001B07047001002408A
:1001D0000000FFF804100240FFFFF6FE0A48006826
:1001E00000F0070109480170C9B2094840180078B9
:1001F000010289B207480160002149B20648016046
:1002000006480160704700BF081001400000002050
:10021000200400000C0C0140A0012142A401214255
:1002200081B04FF000094FF0000CBDEB0A0F04DC69
:10023000BDEB0B0F01DBD446EA464BF8049BBBEB4E
:100240000A0FFAD1BCEB0A0F05DDE246D9F800B07F
:100250000BF1040BF1E701B07047FFFF1E48006887
:1002600040F008011C4801601C48006800F08071E3
:100270001A4801601948006840F06631174801606B
:100280001548006840F010011348016014480168E7
:1002900014480140124801601148016840F6880086
:1002A00001430F4801601048006840F007010E4804
:1002B00001600948006840F00401074801600B48EC
:1002C000006800F00001094801600848006840F03B
:1002D000220106480160704718100240040C0140DA
:1002E0000010014000F0FFFF101001400410014019
:1002F00081B002490248016001B07047401F000010
:100300000400002081B0FEE701B0704782B0CDF854
:1003100000E0334A334B34494BF68030814206D9F2
:100320003248006840F002013048016011E045F6B3
:10033000C050814206D92D48006840F001012B4889
:10034000016006E0294801686FF007000140274876
:100350000160FFF71BFF26480360264802EA000100
:100360002548016002F0010040B1194622480068AA
:1003700000F00200002800D1F8E700E0194602F47E
:10038000803048B11C48006800F4003000B9F9E73B
:1003900001920A46019902E001911146019A01F089
:1003A000807070B11448006840F08071124801609C
:1003B00011461148006800F0007000B9F9E70A46DC
:1003C000FFE70B48006800F00C01900000F00C0003
:1003D000814200D0F5E7DDF800E002B0704700BFD1
:1003E0008100000000000000401F000000200240CB
:1003F00004100240FFFF0F0000100240FFF786FFCD
:1004000000F012F8FFF774FFFFF728FFFFF7E6FE92
:10041000FFF78EFEFCE7FEE700000000010003038B
:100420008EF9A488C0F9868600B5DFF810B0DFF831
:1004300010A0FFF7F5FE00BD704700BF00000020D0
:1004400008000020FFFFFFFFFFFFFFFFFFFFFFFF90
:00000001FF
