:020000040800F2
:10000000FC4F0020390300000D0200000D0200002B
:100010000D0200000D0200000D0200000D020000A4
:100020000D0200000D0200000D0200000D02000094
:100030000D0200000D0200000D0200000D02000084
:100040000D0200000D0200000D0200000D02000074
:100050000D0200000D0200000D0200000D02000064
:100060000D0200000D0200000D0200000D02000054
:100070000D0200000D0200000D0200000D02000044
:100080000D0200000D0200000D0200000D02000034
:100090000D0200000D0200000D0200000D02000024
:1000A0000D0200000D0200000D0200000D02000014
:1000B0000D0200000D020000150200000D020000FC
:1000C0000D0200000D0200000D0200000D020000F4
:1000D0000D0200000D0200000D0200000D020000E4
:1000E0000D0200000D0200000D0200000D020000D4
:1000F0000D0200000D0200000D0200000D020000C4
:100100000D0200000D0200000D0200000D020000B3
:100110000D0200000D0200000D0200000D020000A3
:100120000D0200000D0200000D0200000D02000093
:10013000002149B201480160704700BF940121428B
:1001400081B01CF8019B0BF8019BBBEB0A0FF8D1A7
:1001500001B0704781B00F48006840F001010D48C0
:1001600001600D490D4801600A4801680C480140D2
:1001700008480160074801686FF480200140054885
:100180000160064801686FF4FE0001400348016009
:1001900001B07047001002400000FFF80410024058
:1001A000FFFFF6FE81B04FF000094FF0000CBDEBF1
:1001B0000A0F04DCBDEB0B0F01DBD446EA464BF81B
:1001C000049BBBEB0A0FFAD1BCEB0A0F05DDE2463C
:1001D000D9F800B00BF1040BF1E701B07047FFFF55
:1001E000084801686FF47000014006480160054846
:1001F000006840F4001103480160012149B202483F
:1002000001607047000801409401214281B0FEE77F
:1002100001B07047002149B20448016004490868F0
:1002200080F0010102480160704700BF00020142F6
:100230009401214281B002490248016001B0704737
:10024000401F00000000002082B0CDF800E0334ADB
:10025000334B34494BF68030814206D9324800682E
:1002600040F002013048016011E045F6C050814283
:1002700006D92D48006840F001012B48016006E0D6
:10028000294801686FF00700014027480160FFF727
:1002900061FF26480360264802EA00012548016004
:1002A00002F0010040B119462248006800F0020047
:1002B000002800D1F8E700E0194602F4803048B188
:1002C0001C48006800F4003000B9F9E701920A46C2
:1002D000019902E001911146019A01F0807070B11C
:1002E0001448006840F080711248016011461148BE
:1002F000006800F0007000B9F9E70A46FFE70B4814
:10030000006800F00C01900000F00C00814200D069
:10031000F5E7DDF800E002B0704700BF81000000A3
:1003200000000000401F00000020024004100240B6
:10033000FFFF0F0000100240FFF786FF00F028F8D3
:10034000FFF778FFFFF74CFF0C48006840F004010E
:100350000A4801600A4801680A48014008480160EB
:10036000074801680848014305480160012149B276
:1003700006480160FFF7DCFEFEE7FEE718100240CA
:1003800000080140FF000FFF004B200094012142B4
:1003900000B5DFF810B0DFF810A0FFF703FF00BDD5
:1003A000704700BF0000002004000020FFFFFFFF97
:00000001FF
