:020000040800F2
:10000000FC4F002021050000950600009506000029
:100010009506000095060000950600009506000074
:100020009506000095060000950600009506000064
:100030009506000095060000950600009506000054
:100040009506000095060000950600009506000044
:100050009506000095060000950600009506000034
:100060009506000095060000410500009506000079
:100070009506000095060000950600009506000014
:100080009506000095060000950600009506000004
:1000900095060000950600009506000095060000F4
:1000A00095060000950600009506000095060000E4
:1000B00095060000950600009506000095060000D4
:1000C00095060000950600009506000095060000C4
:1000D00095060000950600009506000095060000B4
:1000E000D10400009506000095060000950600006A
:1000F0009506000095060000950600009506000094
:100100009506000095060000950600009506000083
:100110009506000095060000950600009506000073
:100120009506000095060000950600009506000063
:1001300081B0042806D11949096841F48032174971
:100140000A6028E0052806D11449096841F4003204
:1001500012490A601FE0062806D11049096841F4D7
:1001600080220E490A6016E00F2806D10C49096862
:1001700041F002020A490A600DE010280BD3A0F2F8
:10018000100461098A0007498B1804F01F024FF020
:1001900001019140196001B0704700BF24ED00E0FB
:1001A00010E000E000E100E0012149B230480160C8
:1001B0000822102A11D2A2F2080000B2810009B26E
:1001C0004FF00F008840C1432A48006800EA01014F
:1001D00028480160521CD2B2EBE70822102A11D243
:1001E000A2F2080000B2810009B24FF0060000FA46
:1001F00001F12048006840EA01011E480160521CDC
:10020000D2B2EBE7012149B21B4801600022042A67
:100210000ED2910009B24FF00F008840C143174839
:10022000006800EA010115480160521CD2B2EEE7F5
:100230000022042A0ED2910009B24FF0080000FA01
:1002400001F10E48006840EA01010C480160521CAF
:10025000D2B2EEE70A4801686FF00F00014008488B
:1002600001600748006840F00F01054801607047D1
:100270000C034242040C01401003424200100140B2
:100280000C10014081B0CDF800E0012252B232489A
:100290000260324801686FF4700001402F4801602D
:1002A0002E48006840F480012C4801602C48026010
:1002B0004FF020012B4801602B4802602B48026060
:1002C00040F23800FFF734FF012252B228480260A2
:1002D000284801686FF47060014026480160254895
:1002E000006840F40061234801601D4802604FF43B
:1002F000807121480160214802602148026040F27B
:100300003800FFF715FF01235BB21E4803601E484B
:1003100001686FF4702001401B4801601A480068B2
:1003200040F4002118480160002149B217480160DB
:100330000B48036000221649087862F30300087036
:10034000144803601448036040F21A00FFF7F0FEFF
:10035000DDF800E001B07047100342420410014094
:100360000003424214000140348120423480204284
:100370000C034242040C014010000140A8812042BD
:100380002880204208034242000801409001214297
:100390000C00014010812042108020424CF20001EC
:1003A0000248016000210248017070470C0C0140B6
:1003B000010000200021014801707047000000206A
:1003C00081B00F48006840F001010D4801600D49FF
:1003D0000D4801600A4801680C4801400848016066
:1003E000074801686FF48020014005480160064815
:1003F00001686FF4FE0001400348016001B07047DE
:10040000001002400000FFF804100240FFFFF6FE5B
:1004100011480078F0B111480078411C0F48017074
:100420000E480078102802D100210C4801700B48BA
:1004300001780B4840180078010289B20948016030
:1004400042F62947C0F20A0700BF00BF7F1EFDD158
:1004500000BF00BF704700BF010000200000002067
:10046000AC0600000C0C014081B01CF8019B0BF89D
:10047000019BBBEB0A0FF8D101B0704781B04FF080
:1004800000094FF0000CBDEB0A0F04DCBDEB0B0FB5
:1004900001DBD446EA464BF8049BBBEB0A0FFAD1CA
:1004A000BCEB0A0F05DDE246D9F800B00BF1040BF6
:1004B000F1E701B0704700FF81B0CDF800E0FFF731
:1004C00073FEFFF7DFFEDDF800E001B07047FFFFCD
:1004D00081B0CDF800E00F48006868B1012149B251
:1004E0000C4801600C48007818B100210A480170DE
:1004F00002E00121084801700848006828B1012184
:1005000049B206480160FFF755FFDDF800E001B091
:10051000704700BFB482204201000020A882204220
:1005200000F02CF800F00AF900F0AAF800F0C6F884
:10053000FFF7C2FFFFF732FFFFF76AFFFCE7FEE7B6
:100540000948006800F00F01084801700748017869
:1005500007480170064801780648401800780102F3
:1005600089B2054801607047081001400200002070
:1005700000000020AC0600000C0C014082B0CDF859
:1005800000E0374A374B384C03F0F0000109374898
:100590004018007804FA00F10C464BF68030814296
:1005A00006D93348006840F002013148016011E08B
:1005B00045F6C050844206D92D48006840F001013C
:1005C0002B48016006E02A4801686FF007000140EF
:1005D00027480160FFF7F4FE26480360264802EA38
:1005E00000012648016002F0010040B1194623488D
:1005F000006800F00200002800D1F8E700E019468A
:1006000002F4803048B11D48006800F4003000B9A1
:10061000F9E701920A46019902E001911146019A17
:1006200001F0807070B11548006840F08071134887
:10063000016011461148006800F0007000B9F9E748
:100640000A46FFE70B48006800F00C01900000F03C
:100650000C00814200D0F5E7DDF800E002B0704701
:100660008100000000000000401F00009C06000008
:100670000020024004100240FFFF0F000010024063
:1006800081B002490248016001B07047401F00007C
:100690000400002081B0FEE701B0704700000000B8
:1006A000010203040102030406070809C0F9A4B00B
:1006B000999282F880908883A7A1868E00B5DFF892
:1006C00014B0DFF814A0DFF814C0FFF7CDFE00BDB2
:1006D000704700BF0000002001000020B6040000A9
:1006E000FFFFFFFFFFFFFFFFFFFFFFFFFFFFFFFF1A
:1006F000FFFFFFFFFFFFFFFFFFFFFFFFFFFFFFFF0A
:10070000FFFFFFFFFFFFFFFFFFFFFFFFFFFFFFFFF9
:10071000FFFFFFFFFFFFFFFFFFFFFFFFFFFFFFFFE9
:10072000FFFFFFFFFFFFFFFFFFFFFFFFFFFFFFFFD9
:10073000FFFFFFFFFFFFFFFFFFFFFFFF00B5DFF839
:1007400010B0DFF810A0FFF799FE00BD704700BFA2
:100750000000002008000020FFFFFFFFFFFFFFFF59
:00000001FF
