:020000040800F2
:10000000FC4F0020890300009102000091020000D3
:100010009102000091020000910200009102000094
:100020009102000091020000910200009102000084
:100030009102000091020000910200009102000074
:100040009102000091020000910200009102000064
:100050009102000091020000910200009102000054
:100060009102000091020000910200009102000044
:100070009102000091020000910200009102000034
:100080009102000091020000910200009102000024
:100090009102000091020000910200009102000014
:1000A0009102000091020000910200009102000004
:1000B00091020000910200009102000091020000F4
:1000C00091020000910200009102000091020000E4
:1000D00091020000910200009102000091020000D4
:1000E00091020000910200009102000091020000C4
:1000F00091020000910200009102000091020000B4
:1001000091020000910200009102000091020000A3
:100110009102000091020000910200009102000093
:100120009102000091020000910200009102000083
:100130000E4A11780E4840180078010289B20D4825
:10014000016010460078401CC0B21070102802D127
:100150000021064801704BF2A907C0F2280700BF32
:1001600000BF7F1EFDD100BF00BF70470000002010
:10017000A40300000C0C014081B01CF8019B0BF89B
:10018000019BBBEB0A0FF8D101B0704781B00F485B
:10019000006840F001010D4801600D490D48016003
:1001A0000A4801680C480140084801600748016896
:1001B0006FF48020014005480160064801686FF433
:1001C000FE0001400348016001B07047001002408A
:1001D0000000FFF804100240FFFFF6FE0021014876
:1001E000017070470000002081B04FF000094FF00F
:1001F000000CBDEB0A0F04DCBDEB0B0F01DBD4469A
:10020000EA464BF8049BBBEB0A0FFAD1BCEB0A0F92
:1002100005DDE246D9F800B00BF1040BF1E701B0BF
:100220007047FFFF1248006840F008011048016065
:100230001048006800F080710E4801600D480068A9
:1002400040F066310B4801600948006840F0100139
:10025000074801600848006800F000010648016096
:100260000548016848F6880001430348016070476B
:1002700018100240040C01400010014081B00249F6
:100280000248016001B07047401F000004000020D8
:1002900081B0FEE701B0704782B0CDF800E0334A8C
:1002A000334B34494BF68030814206D932480068DE
:1002B00040F002013048016011E045F6C050814233
:1002C00006D92D48006840F001012B48016006E086
:1002D000294801686FF00700014027480160FFF7D7
:1002E00055FF26480360264802EA000125480160C0
:1002F00002F0010040B119462248006800F00200F7
:10030000002800D1F8E700E0194602F4803048B137
:100310001C48006800F4003000B9F9E701920A4671
:10032000019902E001911146019A01F0807070B1CB
:100330001448006840F0807112480160114611486D
:10034000006800F0007000B9F9E70A46FFE70B48C3
:10035000006800F00C01900000F00C00814200D019
:10036000F5E7DDF800E002B0704700BF8100000053
:1003700000000000401F0000002002400410024066
:10038000FFFF0F0000100240FFF786FF00F012F899
:10039000FFF774FFFFF746FFFFF720FFFFF7C8FEE8
:1003A000FCE7FEE7C0F9A4B0999282F880908883B8
:1003B000A7A1868E00B5DFF810B0DFF810A0FFF718
:1003C00013FF00BD704700BF0000002008000020A0
:00000001FF
