:020000040800F2
:10000000FC4F002009040000DD020000DD020000BA
:10001000DD020000DD020000DD020000DD02000064
:10002000DD020000DD020000DD020000DD02000054
:10003000DD020000DD020000DD020000DD02000044
:10004000DD020000DD020000DD020000DD02000034
:10005000DD020000DD020000DD020000DD02000024
:10006000DD020000DD020000DD020000DD02000014
:10007000DD020000DD020000DD020000DD02000004
:10008000DD020000DD020000DD020000DD020000F4
:10009000DD020000DD020000DD020000DD020000E4
:1000A000DD020000DD020000DD020000DD020000D4
:1000B000DD020000DD020000E5020000DD020000BC
:1000C000DD020000DD020000DD020000DD020000B4
:1000D000DD020000DD020000DD020000DD020000A4
:1000E000DD020000DD020000DD020000DD02000094
:1000F000DD020000DD020000DD020000DD02000084
:10010000DD020000DD020000DD020000DD02000073
:10011000DD020000DD020000DD020000DD02000063
:10012000DD020000DD020000DD020000DD02000053
:1001300081B0042806D11949096841F48032174971
:100140000A6028E0052806D11449096841F4003204
:1001500012490A601FE0062806D11049096841F4D7
:1001600080220E490A6016E00F2806D10C49096862
:1001700041F002020A490A600DE010280BD3A0F2F8
:10018000100461098A0007498B1804F01F024FF020
:1001900001019140196001B0704700BF24ED00E0FB
:1001A00010E000E000E100E0002149B201480160F8
:1001B000704700BF9401214281B00F48006840F0B1
:1001C00001010D4801600D490D4801600A480168B0
:1001D0000C48014008480160074801686FF480201E
:1001E000014005480160064801686FF4FE000140C7
:1001F0000348016001B07047001002400000FFF8A2
:1002000004100240FFFFF6FE81B01CF8019B0BF8C2
:10021000019BBBEB0A0FF8D101B0704781B04FF0E2
:1002200000094FF0000CBDEB0A0F04DCBDEB0B0F17
:1002300001DBD446EA464BF8049BBBEB0A0FFAD12C
:10024000BCEB0A0F05DDE246D9F800B00BF1040B58
:10025000F1E701B07047FFFF81B0CDF800E0012267
:1002600052B216480260164801686FF470000140EF
:10027000134801601248006840F400111048016002
:100280001048026010480260002149B20F48016026
:1002900041F63F710E48016040F2F4110D480160D3
:1002A0000D48026040F22E00FFF742FF012149B2E3
:1002B00006480160DDF800E001B0704708034242E3
:1002C000000801409401214288034242000001429B
:1002D000280800402C0800408001014281B0FEE760
:1002E00001B07047002149B2044801600449086820
:1002F00080F0010102480160704700BF0002014226
:100300009401214281B002490248016001B0704766
:10031000401F00000000002082B0CDF800E0334A0A
:10032000334B34494BF68030814206D9324800685D
:1003300040F002013048016011E045F6C0508142B2
:1003400006D92D48006840F001012B48016006E005
:10035000294801686FF00700014027480160FFF756
:100360002BFF26480360264802EA00012548016069
:1003700002F0010040B119462248006800F0020076
:10038000002800D1F8E700E0194602F4803048B1B7
:100390001C48006800F4003000B9F9E701920A46F1
:1003A000019902E001911146019A01F0807070B14B
:1003B0001448006840F080711248016011461148ED
:1003C000006800F0007000B9F9E70A46FFE70B4843
:1003D000006800F00C01900000F00C00814200D099
:1003E000F5E7DDF800E002B0704700BF81000000D3
:1003F00000000000401F00000020024004100240E6
:10040000FFFF0F0000100240FFF786FF00F008F822
:10041000FFF778FFFFF720FFFFF7C6FEFEE7FEE7D6
:1004200000B5DFF810B0DFF810A0FFF7F7FE00BD51
:10043000704700BF0000002004000020FFFFFFFF06
:00000001FF
